{
  "contractName": "Adoption",
  "abi": [
    {
      "inputs": [
        {
          "internalType": "uint256",
          "name": "",
          "type": "uint256"
        }
      ],
      "name": "adopters",
      "outputs": [
        {
          "internalType": "address",
          "name": "",
          "type": "address"
        }
      ],
      "stateMutability": "view",
      "type": "function",
      "constant": true
    },
    {
      "inputs": [
        {
          "internalType": "uint256",
          "name": "petId",
          "type": "uint256"
        }
      ],
      "name": "adopt",
      "outputs": [
        {
          "internalType": "uint256",
          "name": "",
          "type": "uint256"
        }
      ],
      "stateMutability": "nonpayable",
      "type": "function"
    },
    {
      "inputs": [],
      "name": "getAdopters",
      "outputs": [
        {
          "internalType": "address[16]",
          "name": "",
          "type": "address[16]"
        }
      ],
      "stateMutability": "view",
      "type": "function",
      "constant": true
    },
    {
      "inputs": [
        {
          "internalType": "uint256",
          "name": "petId",
          "type": "uint256"
        }
      ],
      "name": "UnAdopt",
      "outputs": [
        {
          "internalType": "uint256",
          "name": "",
          "type": "uint256"
        }
      ],
      "stateMutability": "nonpayable",
      "type": "function"
    }
  ],
  "bytecode": "0x608060405234801561001057600080fd5b50610441806100206000396000f3fe608060405234801561001057600080fd5b506004361061004c5760003560e01c80633de4eb171461005157806343ae80d3146100975780638588b2c5146100ef578063e52d639914610131575b600080fd5b610059610173565b6040518082601060200280838360005b83811015610084578082015181840152602081019050610069565b5050505090500191505060405180910390f35b6100c3600480360360208110156100ad57600080fd5b81019080803590602001909291905050506101f4565b604051808273ffffffffffffffffffffffffffffffffffffffff16815260200191505060405180910390f35b61011b6004803603602081101561010557600080fd5b8101908080359060200190929190505050610227565b6040518082815260200191505060405180910390f35b61015d6004803603602081101561014757600080fd5b81019080803590602001909291905050506102e4565b6040518082815260200191505060405180910390f35b61017b6103c3565b60006010806020026040519081016040528092919082601080156101ea576020028201915b8160009054906101000a900473ffffffffffffffffffffffffffffffffffffffff1673ffffffffffffffffffffffffffffffffffffffff16815260200190600101908083116101a0575b5050505050905090565b6000816010811061020157fe5b016000915054906101000a900473ffffffffffffffffffffffffffffffffffffffff1681565b600080821015801561023a5750600f8211155b61028f576040517f08c379a00000000000000000000000000000000000000000000000000000000081526004018080602001828103825260258152602001806103e76025913960400191505060405180910390fd5b336000836010811061029d57fe5b0160006101000a81548173ffffffffffffffffffffffffffffffffffffffff021916908373ffffffffffffffffffffffffffffffffffffffff160217905550819050919050565b60003373ffffffffffffffffffffffffffffffffffffffff166000836010811061030a57fe5b0160009054906101000a900473ffffffffffffffffffffffffffffffffffffffff1673ffffffffffffffffffffffffffffffffffffffff161461034c57600080fd5b601060009054906101000a900473ffffffffffffffffffffffffffffffffffffffff166000836010811061037c57fe5b0160006101000a81548173ffffffffffffffffffffffffffffffffffffffff021916908373ffffffffffffffffffffffffffffffffffffffff160217905550819050919050565b60405180610200016040528060109060208202803683378082019150509050509056fe5468652049642073686f756c64206265207a65726f206f72206c657373207468616e203135a2646970667358221220ff8e7751017feea2bf524d2f1b13c1139aab028d0f18919f9acc05abb81923a264736f6c63430007000033",
  "immutableReferences": {},
  "source": "pragma solidity ^0.7.0;\r\n\r\ncontract Adoption{\r\n\r\n    address[16] public adopters;\r\n    address empty;\r\n    \r\n    //Adopting a pet\r\n    function adopt(uint petId) public returns(uint){\r\n        require(petId >= 0 && petId <=15,\"The Id should be zero or less than 15\");\r\n        adopters[petId] = msg.sender;\r\n\r\n        return petId;\r\n    }\r\n\r\n    function getAdopters() public view returns(address[16] memory){\r\n        return adopters;\r\n    }\r\n    //UnAdopt a pet\r\n    function UnAdopt(uint petId) public returns(uint){\r\n        require (adopters[petId] == msg.sender);\r\n        adopters[petId] = empty;\r\n        return petId;\r\n    }\r\n    \r\n}",
  "sourcePath": "C:/Users/admin/Documents/Dapps/PetShop/contracts/Adoption.sol",
  "compiler": {
    "name": "solc",
    "version": "0.7.0+commit.9e61f92b.Emscripten.clang"
  },
  "schemaVersion": "3.3.1",
  "updatedAt": "2021-03-05T16:15:34.332Z",
  "networkType": "ethereum",
  "devdoc": {
    "kind": "dev",
    "methods": {},
    "version": 1
  },
  "userdoc": {
    "kind": "user",
    "methods": {},
    "version": 1
  }
}